{
  "contractName": "NodeRegistry",
  "abi": [
    {
      "inputs": [
        {
          "internalType": "uint256",
          "name": "_depth",
          "type": "uint256"
        }
      ],
      "stateMutability": "nonpayable",
      "type": "constructor"
    },
    {
      "inputs": [
        {
          "internalType": "address",
          "name": "",
          "type": "address"
        },
        {
          "internalType": "uint256",
          "name": "",
          "type": "uint256"
        }
      ],
      "name": "nodeRegistry",
      "outputs": [
        {
          "internalType": "uint256",
          "name": "blockHeight",
          "type": "uint256"
        },
        {
          "internalType": "uint256",
          "name": "minimumPrize",
          "type": "uint256"
        }
      ],
      "stateMutability": "view",
      "type": "function"
    },
    {
      "inputs": [
        {
          "internalType": "uint256",
          "name": "minimumPrize",
          "type": "uint256"
        }
      ],
      "name": "goOnline",
      "outputs": [],
      "stateMutability": "nonpayable",
      "type": "function"
    },
    {
      "inputs": [
        {
          "internalType": "uint256",
          "name": "minimumPrize",
          "type": "uint256"
        }
      ],
      "name": "changePrice",
      "outputs": [],
      "stateMutability": "nonpayable",
      "type": "function"
    },
    {
      "inputs": [],
      "name": "goOffline",
      "outputs": [],
      "stateMutability": "nonpayable",
      "type": "function"
    },
    {
      "inputs": [
        {
          "internalType": "address",
          "name": "node",
          "type": "address"
        }
      ],
      "name": "getCollisionSlot",
      "outputs": [
        {
          "internalType": "bytes32",
          "name": "",
          "type": "bytes32"
        }
      ],
      "stateMutability": "view",
      "type": "function"
    },
    {
      "inputs": [
        {
          "internalType": "bytes32",
          "name": "a",
          "type": "bytes32"
        },
        {
          "internalType": "uint256",
          "name": "n",
          "type": "uint256"
        }
      ],
      "name": "shiftLeft",
      "outputs": [
        {
          "internalType": "bytes32",
          "name": "",
          "type": "bytes32"
        }
      ],
      "stateMutability": "pure",
      "type": "function"
    },
    {
      "inputs": [
        {
          "internalType": "bytes32",
          "name": "collisionSlot",
          "type": "bytes32"
        },
        {
          "internalType": "address",
          "name": "node",
          "type": "address"
        }
      ],
      "name": "isOnline",
      "outputs": [
        {
          "internalType": "bool",
          "name": "",
          "type": "bool"
        }
      ],
      "stateMutability": "view",
      "type": "function"
    }
  ],
  "bytecode": "0x608060405234801561001057600080fd5b5060405161060738038061060783398101604081905261002f91610037565b60005561004f565b600060208284031215610048578081fd5b5051919050565b6105a98061005e6000396000f3fe608060405234801561001057600080fd5b506004361061009a576000357c010000000000000000000000000000000000000000000000000000000090048063a6485ccd11610078578063a6485ccd146100fe578063af17f73514610106578063b338123c14610119578063ffbf4f84146101395761009a565b80635eb2a2431461009f578063715c8412146100c8578063a2b40d19146100e9575b600080fd5b6100b26100ad366004610428565b61014c565b6040516100bf91906104ff565b60405180910390f35b6100db6100d636600461044a565b610197565b6040516100bf929190610565565b6100fc6100f73660046104dc565b6101d0565b005b6100fc61020d565b6100fc6101143660046104dc565b610248565b61012c610127366004610474565b6102bb565b6040516100bf91906104f4565b6100b26101473660046104bb565b6102ec565b6000610169600160005460020a03600102600054610100036102ec565b6c0100000000000000000000000073ffffffffffffffffffffffffffffffffffffffff841602169050919050565b600260205281600052604060002081815481106101b057fe5b600091825260209091206002909102018054600190910154909250905082565b336000818152600260205260408120916101e99061014c565b90506101f581336102bb565b6101fe57600080fd5b61020882846102f3565b505050565b336000818152600260205260408120916102269061014c565b905061023281336102bb565b61023b57600080fd5b61024482610377565b5050565b336000818152600260205260408120916102619061014c565b905061026d81336102bb565b1561027757600080fd5b6000818152600160208181526040832080549283018155835290912001805473ffffffffffffffffffffffffffffffffffffffff19163317905561020882846102f3565b6000828152600160205260408120805473ffffffffffffffffffffffffffffffffffffffff84169190fe5b92915050565b60020a0290565b80610333576040517f08c379a000000000000000000000000000000000000000000000000000000000815260040161032a90610508565b60405180910390fd5b6040805180820190915266ffffffffffffff431681526020808201928352835460018181018655600095865291909420915160029094029091019283559051910155565b6040805180820190915266ffffffffffffff43168152600060208083018281528454600181810187558685529284209451600290910290940193845551928101929092556103c43361014c565b81526020808201929092526040016000908120805460018101825590825291902001805473ffffffffffffffffffffffffffffffffffffffff1916905550565b803573ffffffffffffffffffffffffffffffffffffffff811681146102e657600080fd5b600060208284031215610439578081fd5b6104438383610404565b9392505050565b6000806040838503121561045c578081fd5b6104668484610404565b946020939093013593505050565b60008060408385031215610486578182fd5b82359150602083013573ffffffffffffffffffffffffffffffffffffffff811681146104b0578182fd5b809150509250929050565b600080604083850312156104cd578182fd5b50508035926020909101359150565b6000602082840312156104ed578081fd5b5035919050565b901515815260200190565b90815260200190565b60208082526021908201527f4e6f646552656769737472793a2030206e6f7420612076616c6964207072696360408201527f6500000000000000000000000000000000000000000000000000000000000000606082015260800190565b91825260208201526040019056fea2646970667358221220075651bc83656b67478d8ee750adced95164fdc3cc43a2213088b8989c44015364736f6c63430006030033",
  "source": "pragma solidity ^0.6.3;\npragma experimental ABIEncoderV2;\n\n// NodeRegistry registers online nodes and their prices\ncontract NodeRegistry {\n\n    // the current maximum depth of Swarm. We can register maximally n^depth nodes\n    // depth is NOT yet adaptable. TODO\n    uint256 depth;\n\n    // set depth during deployment.\n    constructor(uint256 _depth) public {\n        depth = _depth;\n    }\n\n    // HistoricalPrice records the node's minimumPrize and the blockHeight at which the variable was last changed.\n    // TODO: optimize storage space in structs (keeping into account requirements from other contracts that interact with this contract)\n    struct HistoricalPrice {\n        uint256 blockHeight;\n        uint256 minimumPrize;\n    }\n\n    // tells if slot (left border of collisionSlot) is taken. Last entry in array is current occupier. address(0) means free\n    mapping(bytes32 => address[]) collisionRegistry;\n\n    // maps owners to their HistoricalPrices. Last entry in array is current HistoricalPrice. Valid if collisionSlot is occupied by owner.\n    mapping(address => HistoricalPrice[]) public nodeRegistry;\n\n    // must be called by a node to start earning income. A node can only go online if there is a free collisionSlot for his address\n    function goOnline(uint256 minimumPrize) public {\n        HistoricalPrice[] storage prices = nodeRegistry[msg.sender];\n        bytes32 collisionSlot = getCollisionSlot(msg.sender);\n        require(!isOnline(collisionSlot, msg.sender));\n        collisionRegistry[collisionSlot].push(msg.sender);\n        _changePrice(prices, minimumPrize);\n        // emit event\n    }\n\n    // a node can change his price when currently online\n    function changePrice(uint256 minimumPrize) public {\n        HistoricalPrice[] storage prices = nodeRegistry[msg.sender];\n        bytes32 collisionSlot = getCollisionSlot(msg.sender);\n        require(isOnline(collisionSlot, msg.sender));\n        _changePrice(prices, minimumPrize);\n        // emit event\n    }\n\n    // a node can go offline.\n    function goOffline() public {\n        HistoricalPrice[] storage prices = nodeRegistry[msg.sender];\n        bytes32 collisionSlot = getCollisionSlot(msg.sender);\n        require(isOnline(collisionSlot, msg.sender));\n        _goOffline(prices);\n    }\n\n    // a change in price is always reflected by a push to the HistoricalPrice array for the node\n    function _changePrice(HistoricalPrice[] storage prices, uint256 minimumPrize) internal {\n        require(minimumPrize != 0, \"NodeRegistry: 0 not a valid price\");\n        prices.push(HistoricalPrice(uint56(block.number), minimumPrize));\n    }\n\n    // going offline is reflected by a push to the HistoricalPrice array (with price == 0) and a de-registration on the collisionRegistry.\n    // TODO: figure out if the push to the HistoricalPrice array is needed (push to the collisionRegistry might be enough)\n    function _goOffline(HistoricalPrice[] storage prices) internal {\n        prices.push(HistoricalPrice(uint56(block.number), 0));\n        collisionRegistry[getCollisionSlot(msg.sender)].push(address(0));\n    }\n\n    // tells in which collision slot a certain address falls\n    function getCollisionSlot(address node) public view returns(bytes32) {\n        return bytes32(uint256(node) << 96) & shiftLeft(bytes32(2 ** depth - 1), 256 - depth);\n    }\n\n    // helper function, doing a n-bitwise shift on a\n    function shiftLeft(bytes32 a, uint256 n) public pure returns (bytes32) {\n        uint256 shifted = uint256(a) * 2 ** n;\n        return bytes32(shifted);\n    }\n\n    // tells if a node is online, by looking at the collisionRegistry\n    // TODO: function doesn't look yet at the information that is available in the HistoricalPrice array.\n    function isOnline(bytes32 collisionSlot, address node) public view returns(bool) {\n        return collisionRegistry[collisionSlot][collisionRegistry[collisionSlot].length] == node;\n    }\n}",
  "sourcePath": "/home/rinke/Projects/postage_payments/contracts/NodeRegistry.sol",
  "compiler": {
    "name": "solc",
    "version": "0.6.3+commit.8dda9521.Emscripten.clang"
  },
  "schemaVersion": "3.0.20",
  "updatedAt": "2020-03-10T10:51:35.752Z",
  "devdoc": {
    "methods": {}
  },
  "userdoc": {
    "methods": {}
  }
}