{
  "contractName": "PostOffice",
  "abi": [
    {
      "inputs": [
        {
          "internalType": "uint256",
          "name": "_redundancy",
          "type": "uint256"
        }
      ],
      "stateMutability": "nonpayable",
      "type": "constructor"
    },
    {
      "inputs": [
        {
          "internalType": "bytes32",
          "name": "",
          "type": "bytes32"
        },
        {
          "internalType": "uint256",
          "name": "",
          "type": "uint256"
        }
      ],
      "name": "batchRegistry",
      "outputs": [
        {
          "internalType": "uint256",
          "name": "blockHeight",
          "type": "uint256"
        },
        {
          "internalType": "uint256",
          "name": "depth",
          "type": "uint256"
        },
        {
          "internalType": "uint256",
          "name": "maximumPrice",
          "type": "uint256"
        }
      ],
      "stateMutability": "view",
      "type": "function"
    },
    {
      "inputs": [
        {
          "internalType": "uint64",
          "name": "depth",
          "type": "uint64"
        },
        {
          "internalType": "uint136",
          "name": "maximumPrice",
          "type": "uint136"
        }
      ],
      "name": "createBatch",
      "outputs": [],
      "stateMutability": "payable",
      "type": "function"
    },
    {
      "inputs": [
        {
          "internalType": "address",
          "name": "owner",
          "type": "address"
        },
        {
          "internalType": "uint256",
          "name": "_batchesCreated",
          "type": "uint256"
        }
      ],
      "name": "getBatchID",
      "outputs": [
        {
          "internalType": "bytes32",
          "name": "",
          "type": "bytes32"
        }
      ],
      "stateMutability": "pure",
      "type": "function"
    },
    {
      "inputs": [
        {
          "internalType": "bytes32",
          "name": "batchID",
          "type": "bytes32"
        }
      ],
      "name": "topUpBatch",
      "outputs": [],
      "stateMutability": "payable",
      "type": "function"
    }
  ],
  "bytecode": "0x608060405234801561001057600080fd5b5060405161042438038061042483398101604081905261002f91610037565b60005561004f565b600060208284031215610048578081fd5b5051919050565b6103c68061005e6000396000f3fe60806040526004361061005b577c0100000000000000000000000000000000000000000000000000000000600035046314e94afc811461006057806397757dfb14610098578063bfe3519c146100ad578063d826514d146100da575b600080fd5b34801561006c57600080fd5b5061008061007b3660046102c2565b6100ed565b60405161008f9392919061037a565b60405180910390f35b6100ab6100a63660046102e3565b61012c565b005b3480156100b957600080fd5b506100cd6100c8366004610267565b610208565b60405161008f9190610371565b6100ab6100e83660046102aa565b61023b565b6003602052816000526040600020818154811061010657fe5b600091825260209091206003909102018054600182015460029092015490935090915083565b33600081815260026020526040812054909161014791610208565b6000818152600360208181526040808420815160608101835266ffffffffffffff4316815267ffffffffffffffff8a1681850190815270ffffffffffffffffffffffffffffffffff8a16938201938452825460018181018555938852949096209051939094029093019182559251918101919091559051600290910155905034156101ed5760008181526001602081815260408320805492830181558352909120349101555b50503360009081526002602052604090208054600101905550565b6000828260405160200161021d92919061033c565b60405160208183030381529060405280519060200120905092915050565b3461024557600080fd5b6000908152600160208181526040832080549283018155835290912034910155565b60008060408385031215610279578182fd5b823573ffffffffffffffffffffffffffffffffffffffff8116811461029c578283fd5b946020939093013593505050565b6000602082840312156102bb578081fd5b5035919050565b600080604083850312156102d4578182fd5b50508035926020909101359150565b600080604083850312156102f5578182fd5b823567ffffffffffffffff8116811461030c578283fd5b9150602083013570ffffffffffffffffffffffffffffffffff81168114610331578182fd5b809150509250929050565b73ffffffffffffffffffffffffffffffffffffffff929092166c01000000000000000000000000028252601482015260340190565b90815260200190565b928352602083019190915260408201526060019056fea26469706673582212208f8d55677581f456dcb7a3d1ef465c22fae9ab76a3f00cbdc6090046a4bacd0664736f6c63430006030033",
  "source": "pragma solidity ^0.6.3;\npragma experimental ABIEncoderV2;\n// PostOffice allows creation of batches and top-up. TODO: price change\ncontract PostOffice {\n\n    //TODO: make changeable, or part of batch\n    uint256 redundancy;\n\n    //TODO: optimize struct space\n    struct Batch {\n        uint256 blockHeight; // blockHeight when batch was registered (or changed? TODO)\n        uint256 depth; // the depth of the batch, which should be deeper than the depth of Swarm (see StorageRegistry)\n        /**\n          the maximumPrice a node wants to pay for his batch. If maximumPrice < node's minimumPrize (see StorageRegistry),\n          node is not allowed to earn income on batch. A node is allowed to earn income if he is within the\n          R cheapest nodes from the R * A closest nodes around the chunks. A is a constant (e.g. 2) and set by the StoragePayments contract (??)\n        **/\n        uint256 maximumPrice;\n    }\n\n    // keeps track of the amount of payments that were made into this batch\n    mapping(bytes32 => uint256[]) paymentsMade;\n\n    // keeps count of the number of batches created by the node. A node may have multiple active batches at any time. The latest batch can be accessed by batchesCreated - 1\n    mapping(address => uint256) batchesCreated;\n\n    // maps the batchID to a Batch. The latest entry in the array is valid.  A batchID is the keccak256 hash of owner and batchesCreated (see function getBatchID)\n    mapping(bytes32 => Batch[]) public batchRegistry;\n\n    constructor(uint256 _redundancy) public {\n        redundancy = _redundancy;\n    }\n \n    // create a batch and update paymentsMade (if any payment is included). Note: a batch is not valid if it doesn't contain a payment\n    function createBatch(uint64 depth, uint136 maximumPrice) public payable {\n        bytes32 batchID = getBatchID(msg.sender, batchesCreated[msg.sender]);\n        batchRegistry[batchID].push(Batch(uint56(block.number), depth, maximumPrice));\n        if(msg.value != 0) {\n            paymentsMade[batchID].push(msg.value);\n        }\n        batchesCreated[msg.sender] += 1;\n        // emit event\n    }\n\n    // get the batchID of the batchesCreated - 1 batch that was created by the owner.\n    function getBatchID(address owner, uint256 _batchesCreated) public pure returns(bytes32) {\n        return keccak256(abi.encodePacked(owner, _batchesCreated));\n    }\n\n    // anybody can top up a batch. Previously emptied batches can be filled again and can even be re-stamped (note: it can't be 100% gauaranteed that all \"old\" chunks disappeared in the network)\n    function topUpBatch(bytes32 batchID) public payable {\n        require(msg.value != 0);\n        paymentsMade[batchID].push(msg.value);\n    }\n}",
  "sourcePath": "/home/rinke/Projects/postage_payments/contracts/PostOffice.sol",
  "compiler": {
    "name": "solc",
    "version": "0.6.3+commit.8dda9521.Emscripten.clang"
  },
  "schemaVersion": "3.0.20",
  "updatedAt": "2020-03-10T10:51:35.759Z",
  "devdoc": {
    "methods": {}
  },
  "userdoc": {
    "methods": {}
  }
}