{
  "contractName": "StoragePayments",
  "abi": [
    {
      "inputs": [
        {
          "internalType": "uint256",
          "name": "_omissionChallengeStake",
          "type": "uint256"
        },
        {
          "internalType": "address",
          "name": "_postOffice",
          "type": "address"
        },
        {
          "internalType": "address",
          "name": "_nodeRegistry",
          "type": "address"
        }
      ],
      "stateMutability": "nonpayable",
      "type": "constructor"
    },
    {
      "inputs": [
        {
          "internalType": "uint256",
          "name": "payment",
          "type": "uint256"
        },
        {
          "internalType": "bytes32",
          "name": "root",
          "type": "bytes32"
        }
      ],
      "name": "proposePayment",
      "outputs": [],
      "stateMutability": "nonpayable",
      "type": "function"
    },
    {
      "inputs": [
        {
          "internalType": "address",
          "name": "requestor",
          "type": "address"
        },
        {
          "internalType": "bytes32[]",
          "name": "proofL",
          "type": "bytes32[]"
        },
        {
          "internalType": "bytes32",
          "name": "leafL",
          "type": "bytes32"
        },
        {
          "internalType": "bytes32[]",
          "name": "proofR",
          "type": "bytes32[]"
        },
        {
          "internalType": "bytes32",
          "name": "leafR",
          "type": "bytes32"
        },
        {
          "internalType": "bytes32",
          "name": "root",
          "type": "bytes32"
        },
        {
          "components": [
            {
              "internalType": "bytes32",
              "name": "batchID",
              "type": "bytes32"
            },
            {
              "internalType": "uint256",
              "name": "startBlock",
              "type": "uint256"
            },
            {
              "internalType": "uint256",
              "name": "endBlock",
              "type": "uint256"
            },
            {
              "internalType": "uint256",
              "name": "price",
              "type": "uint256"
            }
          ],
          "internalType": "struct StoragePayments.Invoice",
          "name": "invoice",
          "type": "tuple"
        }
      ],
      "name": "challengeComplete",
      "outputs": [],
      "stateMutability": "payable",
      "type": "function"
    },
    {
      "inputs": [],
      "name": "challengeIncorrect",
      "outputs": [],
      "stateMutability": "nonpayable",
      "type": "function"
    },
    {
      "inputs": [],
      "name": "challengeAmount",
      "outputs": [],
      "stateMutability": "nonpayable",
      "type": "function"
    },
    {
      "inputs": [
        {
          "internalType": "address",
          "name": "requestor",
          "type": "address"
        },
        {
          "internalType": "address",
          "name": "challengee",
          "type": "address"
        },
        {
          "internalType": "uint256",
          "name": "refuteIndex",
          "type": "uint256"
        },
        {
          "internalType": "uint256",
          "name": "batchIndex",
          "type": "uint256"
        },
        {
          "internalType": "uint256",
          "name": "nodeRegistryIndex",
          "type": "uint256"
        }
      ],
      "name": "refuteCompleteNoMatch",
      "outputs": [],
      "stateMutability": "nonpayable",
      "type": "function"
    },
    {
      "inputs": [],
      "name": "refuteCompleteCheaperNodes",
      "outputs": [],
      "stateMutability": "nonpayable",
      "type": "function"
    },
    {
      "inputs": [],
      "name": "refuteCompleteEmptyBalance",
      "outputs": [],
      "stateMutability": "nonpayable",
      "type": "function"
    },
    {
      "inputs": [],
      "name": "refuteIncorrectNoMatch",
      "outputs": [],
      "stateMutability": "nonpayable",
      "type": "function"
    },
    {
      "inputs": [],
      "name": "refuteIncorrectCheaperNodes",
      "outputs": [],
      "stateMutability": "nonpayable",
      "type": "function"
    },
    {
      "inputs": [],
      "name": "refuteIncorrectEmptyBalance",
      "outputs": [],
      "stateMutability": "nonpayable",
      "type": "function"
    },
    {
      "inputs": [],
      "name": "requestLeafNode",
      "outputs": [],
      "stateMutability": "nonpayable",
      "type": "function"
    },
    {
      "inputs": [
        {
          "internalType": "address",
          "name": "requestor",
          "type": "address"
        },
        {
          "internalType": "uint256",
          "name": "nodeRegistryIndex",
          "type": "uint256"
        },
        {
          "internalType": "uint256",
          "name": "refuteIndex",
          "type": "uint256"
        },
        {
          "internalType": "uint256",
          "name": "batchIndex",
          "type": "uint256"
        }
      ],
      "name": "isPriceMatch",
      "outputs": [
        {
          "internalType": "bool",
          "name": "",
          "type": "bool"
        }
      ],
      "stateMutability": "view",
      "type": "function"
    },
    {
      "inputs": [
        {
          "internalType": "bytes32",
          "name": "batchID",
          "type": "bytes32"
        },
        {
          "internalType": "uint256",
          "name": "index",
          "type": "uint256"
        }
      ],
      "name": "getBatch",
      "outputs": [
        {
          "internalType": "uint256",
          "name": "blockHeight",
          "type": "uint256"
        },
        {
          "internalType": "uint256",
          "name": "depth",
          "type": "uint256"
        },
        {
          "internalType": "uint256",
          "name": "maximumPrice",
          "type": "uint256"
        }
      ],
      "stateMutability": "view",
      "type": "function"
    },
    {
      "inputs": [
        {
          "internalType": "address",
          "name": "node",
          "type": "address"
        },
        {
          "internalType": "uint256",
          "name": "index",
          "type": "uint256"
        }
      ],
      "name": "getNodeRegistry",
      "outputs": [
        {
          "internalType": "uint256",
          "name": "",
          "type": "uint256"
        },
        {
          "internalType": "uint256",
          "name": "",
          "type": "uint256"
        }
      ],
      "stateMutability": "view",
      "type": "function"
    },
    {
      "inputs": [
        {
          "internalType": "bytes32[]",
          "name": "proof",
          "type": "bytes32[]"
        },
        {
          "internalType": "bytes32",
          "name": "root",
          "type": "bytes32"
        },
        {
          "internalType": "bytes32",
          "name": "proofLeaf",
          "type": "bytes32"
        }
      ],
      "name": "requestInvoice",
      "outputs": [],
      "stateMutability": "nonpayable",
      "type": "function"
    },
    {
      "inputs": [],
      "name": "pay",
      "outputs": [],
      "stateMutability": "nonpayable",
      "type": "function"
    },
    {
      "inputs": [],
      "name": "cancel",
      "outputs": [],
      "stateMutability": "nonpayable",
      "type": "function"
    },
    {
      "inputs": [
        {
          "components": [
            {
              "internalType": "bytes32",
              "name": "batchID",
              "type": "bytes32"
            },
            {
              "internalType": "uint256",
              "name": "startBlock",
              "type": "uint256"
            },
            {
              "internalType": "uint256",
              "name": "endBlock",
              "type": "uint256"
            },
            {
              "internalType": "uint256",
              "name": "price",
              "type": "uint256"
            }
          ],
          "internalType": "struct StoragePayments.Invoice",
          "name": "invoice",
          "type": "tuple"
        }
      ],
      "name": "toLeaf",
      "outputs": [
        {
          "internalType": "bytes32",
          "name": "",
          "type": "bytes32"
        }
      ],
      "stateMutability": "pure",
      "type": "function"
    }
  ],
  "bytecode": "0x608060405234801561001057600080fd5b50604051610c68380380610c6883398101604081905261002f91610083565b60029290925560008054600160a060020a03928316600160a060020a031991821617909155600180549290931691161790556100c0565b8051600160a060020a038116811461007d57600080fd5b92915050565b600080600060608486031215610097578283fd5b835192506100a88560208601610066565b91506100b78560408601610066565b90509250925092565b610b99806100cf6000396000f3fe608060405260043610610126576000357c0100000000000000000000000000000000000000000000000000000000900480639b54a01e116100b2578063d1cc7ae911610081578063d1cc7ae91461014d578063ea8a1af01461014d578063ec807ad11461014d578063f465214e1461014d578063fe643e021461024857610126565b80639b54a01e146101e75780639d89e7d41461014d578063b1b3b55414610215578063c9b8d5b21461022857610126565b80632fdf77a9116100f95780632fdf77a91461016257806332418a2e1461014d578063649beea01461019857806367980265146101c7578063985978631461014d57610126565b806302776e111461012b57806302d8d8f91461014d5780631b9265b81461014d5780631e015eca1461014d575b600080fd5b34801561013757600080fd5b5061014b6101463660046109d9565b610275565b005b34801561015957600080fd5b5061014b61027a565b34801561016e57600080fd5b5061018261017d366004610a46565b61027c565b60405161018f9190610b05565b60405180910390f35b3480156101a457600080fd5b506101b86101b3366004610a25565b6102c2565b60405161018f93929190610b0e565b3480156101d357600080fd5b5061014b6101e2366004610883565b61036f565b3480156101f357600080fd5b50610207610202366004610975565b61048c565b60405161018f929190610ab8565b61014b6102233660046108d3565b610534565b34801561023457600080fd5b5061014b610243366004610a25565b610650565b34801561025457600080fd5b5061026861026336600461099f565b610654565b60405161018f9190610afa565b505050565b565b600081600001518260200151836040015184606001516040516020016102a59493929190610ac6565b604051602081830303815290604052805190602001209050919050565b600080546040517f14e94afc00000000000000000000000000000000000000000000000000000000815282918291600160a060020a03909116906314e94afc906103129088908890600401610ab8565b60606040518083038186803b15801561032a57600080fd5b505afa15801561033e573d6000803e3d6000fd5b505050506040513d601f19601f820116820180604052506103629190810190610a8b565b9250925092509250925092565b600160a060020a0385166000908152600360208190526040909120015460ff161561039957600080fd5b600160a060020a038086166000908152600360209081526040808320938816835260049093019052208054849081106103ce57fe5b906000526020600020906005020160040154600014156103ed57600080fd5b6103f985828585610654565b1561040357600080fd5b600160a060020a03808616600090815260036020908152604080832093881683526004909301905290812080548590811061043a57fe5b60009182526020909120600460059092020101556002805433916108fc91049081150290604051600060405180830381858888f19350505050158015610484573d6000803e3d6000fd5b505050505050565b6001546040517f715c84120000000000000000000000000000000000000000000000000000000081526000918291600160a060020a039091169063715c8412906104dc9087908790600401610ae1565b604080518083038186803b1580156104f357600080fd5b505afa158015610507573d6000803e3d6000fd5b505050506040513d601f19601f8201168201806040525061052b9190810190610a68565b50509250929050565b600160a060020a0387166000908152600360208190526040909120015460ff161561055e57600080fd5b61056f86838763ffffffff61070416565b61057857600080fd5b61058984838563ffffffff61070416565b61059257600080fd5b60025434146105a057600080fd5b60006105ab8261027c565b905080861080156105bb57508381105b6105c457600080fd5b50600160a060020a0390961660009081526003602081815260408084204280825533865260049182018452828620835180850185529c8d528c8501918252805460018181018355918852968590209c5180516005909802909d01968755938c015193860193909355908a0151600285015560609099015191830191909155519601959095555050505050565b5050565b6000806000610663878761048c565b915091506000610676888860010161048c565b50600160a060020a038916600090815260036020908152604080832033845260040190915281208054929350909182916106cb918a9081106106b457fe5b6000918252602090912060059091020154886102c2565b92505091508482101580156106e05750828211155b6106f2576000955050505050506106fc565b9092111593505050505b949350505050565b600081815b855181101561079657600086828151811061072057fe5b60200260200101519050808311610761578281604051602001610744929190610ab8565b60405160208183030381529060405280519060200120925061078d565b8083604051602001610774929190610ab8565b6040516020818303038152906040528051906020012092505b50600101610709565b509092149392505050565b8035600160a060020a03811681146107b857600080fd5b92915050565b600082601f8301126107ce578081fd5b813567ffffffffffffffff8111156107e4578182fd5b60208082026107f4828201610b24565b8381529350818401858301828701840188101561081057600080fd5b600092505b84831015610833578035825260019290920191908301908301610815565b505050505092915050565b60006080828403121561084f578081fd5b6108596080610b24565b90508135815260208201356020820152604082013560408201526060820135606082015292915050565b600080600080600060a0868803121561089a578081fd5b85356108a581610b4b565b945060208601356108b581610b4b565b94979496505050506040830135926060810135926080909101359150565b6000806000806000806000610140888a0312156108ee578182fd5b6108f889896107a1565b9650602088013567ffffffffffffffff80821115610914578384fd5b6109208b838c016107be565b975060408a0135965060608a013591508082111561093c578384fd5b506109498a828b016107be565b9450506080880135925060a088013591506109678960c08a0161083e565b905092959891949750929550565b60008060408385031215610987578182fd5b61099184846107a1565b946020939093013593505050565b600080600080608085870312156109b4578384fd5b84356109bf81610b4b565b966020860135965060408601359560600135945092505050565b6000806000606084860312156109ed578283fd5b833567ffffffffffffffff811115610a03578384fd5b610a0f868287016107be565b9660208601359650604090950135949350505050565b60008060408385031215610a37578182fd5b50508035926020909101359150565b600060808284031215610a57578081fd5b610a61838361083e565b9392505050565b60008060408385031215610a7a578182fd5b505080516020909101519092909150565b600080600060608486031215610a9f578283fd5b8351925060208401519150604084015190509250925092565b918252602082015260400190565b93845260208401929092526040830152606082015260800190565b600160a060020a03929092168252602082015260400190565b901515815260200190565b90815260200190565b9283526020830191909152604082015260600190565b60405181810167ffffffffffffffff81118282101715610b4357600080fd5b604052919050565b600160a060020a0381168114610b6057600080fd5b5056fea2646970667358221220ef3c99575c8da96a15ffe46e46f3841774eb39eac7017e9255dec74a79415e2c64736f6c63430006030033",
  "source": "pragma solidity ^0.6.3;\npragma experimental ABIEncoderV2;\n\nimport \"./NodeRegistry.sol\";\nimport \"./PostOffice.sol\";\nimport \"@openzeppelin/contracts/cryptography/MerkleProof.sol\";\n// StoragePayments pays out the money paid to the PostOffice to the nodes who earned this. \n// A node can go offline and be reasonable sure to get his money, which is safeguarded by incentivizing refutation of frivolous challenges\ncontract StoragePayments {\n    \n    // TODO. price, being the sum of two child nodes must be included in the parent node. That way, we can efficiently challenge the Price of the root node\n    // TODO: what if batch doesn't have any funds anymore?\n    // TODO: make cashoutRequest only possible if you are staked or are expected to have acquired enough income (based on time online (?))\n    \n    PostOffice postOffice;\n    NodeRegistry nodeRegistry;\n    \n    // use OpenZeppelin MerkleProof library to process merkle proofs\n    using MerkleProof for bytes32[];\n    \n    /** \n      omissionChallengeStake is the amount of money, needed to challenge a payout request. \n      earned back fully + a profit (from income/stake of requestor) by succesfully challenging \n      earned partly by a refutor by succesfully refuting the challenge\n      TODO: make this somehow modifyable\n    */\n    uint256 omissionChallengeStake;\n    \n    // Invoice is a claim to earn price per block money from batchID for the period of startBlock to endBlock\n    struct Invoice {\n        bytes32 batchID; // batch identifier. Should not have received an update (price change) during period\n        uint256 startBlock; // starting block of period\n        uint256 endBlock; // ending block of period\n        uint256 price; // proposed price. Should be lower than the maximumPrice of requestor during period and higher than batch minimumPrize during period\n    }\n    \n    // OmissionChallenge is the information, needed to challenge an omission\n    struct OmissionChallenge {\n        Invoice invoice;\n        uint256 when; // set to the current block number upon challenging, back to 0 after succesfully refuting\n    }\n    \n    // PendingPayments is the information, needed to process a pending payment\n    struct PendingPayments {\n        uint256 when; // block number when payment was requested. Updated upon challenge and set back to original after succesfully refuting\n        uint256 amount; // how much money is requested\n        bytes32 proof; // root node of merkle tree, which stores the calculation to amount\n        bool paid; // true when paid out. Paid out PendingPayments can't be challenged anymore\n        mapping(address => OmissionChallenge[]) omissionChallengeRegistry; // one address may make multiple challenges\n    }\n    \n    // here, we register the PendingPayments. A node can have one pending pament at a time.\n    mapping(address => PendingPayments) pendingPaymentsRegistry;\n    \n    constructor(uint256 _omissionChallengeStake, address _postOffice, address _nodeRegistry) public {\n        omissionChallengeStake = _omissionChallengeStake;\n        postOffice = PostOffice(_postOffice);\n        nodeRegistry = NodeRegistry(_nodeRegistry);\n    }\n    \n    // function proposes to do a payment by creating a PendingPayments entry for msg.sender\n    // make sure only one pending payment can exist at a time \n    function proposePayment(uint256 payment, bytes32 root) public {\n        // only allow payments by nodes who have been online for some time or are staked. \n    }\n    \n    // we require that invoices are complete and correct. This challenge challenges completeness by uploading a Invoice that was not in the tree, submitted by requestor. \n    // challengeComplete can be refuted by proofing that uploaded Invoice is incorrect. \n    // challengee needs to pay OmissionChallenge money to start challenge, but can earn this amount back + a profit when succesfull\n    // a claim is perceived succesfull when no refutation is received with a certain period. TODO\n    function challengeComplete(address requestor, bytes32[] memory proofL, bytes32 leafL, bytes32[] memory proofR, bytes32 leafR, bytes32 root, Invoice memory invoice) public payable {\n        require(!pendingPaymentsRegistry[requestor].paid);\n        require(proofL.verify(root, leafL)); \n        require(proofR.verify(root, leafR)); \n        require(msg.value == omissionChallengeStake);\n        bytes32 leafM = toLeaf(invoice);\n        require(leafL < leafM && leafM < leafR);\n        // update when\n        pendingPaymentsRegistry[requestor].when = now;\n        pendingPaymentsRegistry[requestor].omissionChallengeRegistry[msg.sender].push(OmissionChallenge(invoice, now));\n    }\n    \n    function challengeIncorrect() public {\n        //TODO. In order to challenge an incorrect entry, a node may submit himself the Invoice (if known). It might also be unclear what the invoice was (e.g. it is complete nonsense or the requestor did something weird).\n        // in this case, we need to first request the Invoice. Invoice may be submitted by anybody who knows the invoice.\n    }\n    \n    function challengeAmount() public {\n        // TODO. Leaf nodes amount don't add up to root amount. Need to adjust merkle structure, to include amount in in-between nodes\n    }\n    \n    // supposedly non-included invoice was not correct due to no price match\n    function refuteCompleteNoMatch(address requestor, address challengee, uint256 refuteIndex, uint256 batchIndex, uint256 nodeRegistryIndex) public {\n         // should not have paid out yet\n        require(!pendingPaymentsRegistry[requestor].paid);\n        // if when == 0, challenge is already refuted\n        require(pendingPaymentsRegistry[requestor].omissionChallengeRegistry[challengee][refuteIndex].when != 0);\n        require(!isPriceMatch(requestor, nodeRegistryIndex, refuteIndex, batchIndex));\n        // make challenge refuted, by setting when to 0\n        pendingPaymentsRegistry[requestor].omissionChallengeRegistry[challengee][refuteIndex].when = 0;\n        // transfer part of omissionChallengeStake. Other part is \"burned\"\n        msg.sender.transfer(omissionChallengeStake/2);\n        // TODO update when on PendingPayments, so cashout can happen automatically\n    }\n    \n    // supposedly non-included invoice was not correct due to cheaper nodes available\n    function refuteCompleteCheaperNodes() public {\n        //TODO\n    }\n    \n    // supposedly non-included invoice was not correct due to batch out of balance\n    function refuteCompleteEmptyBalance() public {\n        //TODO\n    }\n    \n    function refuteIncorrectNoMatch() public {\n        //TODO. Opposite logic of refuteCompleteNoMatch\n    }\n    \n    function refuteIncorrectCheaperNodes() public {\n        // TODO: opposit logic of refuteCompleteCheaperNodes\n    }\n    \n    function refuteIncorrectEmptyBalance() public {\n        //TODO: opposite logic of refuteCompleteEmptyBalance\n    }\n    function requestLeafNode() public {\n        //TODO: challenger suspects a faulty leaf node, or doesn't know what information hashes to the leaf node. This is refuted by uploading a Invoice, which data can be refuted\n    }\n    \n    function isPriceMatch(address requestor, uint256 nodeRegistryIndex, uint256 refuteIndex, uint256 batchIndex) public view returns(bool) {\n        (uint256 blockheightNR, uint256 minimumPrizeNR) = getNodeRegistry(requestor, nodeRegistryIndex);\n        (uint256 blockheightNROne, ) = getNodeRegistry(requestor, nodeRegistryIndex + 1);\n        (uint256 blockheightBatch, , uint256 maximumPriceBatch) = getBatch(pendingPaymentsRegistry[requestor].omissionChallengeRegistry[msg.sender][refuteIndex].invoice.batchID, batchIndex);\n        // return false directly if the blockheight of the batch is outside of the blockheight of the node registry\n        if(!(blockheightBatch >= blockheightNR && blockheightBatch <= blockheightNROne)) {\n            return false;\n        }\n        return minimumPrizeNR <= maximumPriceBatch;\n    }\n\n    function getBatch(bytes32 batchID, uint256 index) public view returns(uint256 blockHeight, uint256 depth, uint256 maximumPrice) {\n        return postOffice.batchRegistry(batchID, index);\n    }\n\n    function getNodeRegistry(address node, uint256 index) public view returns(uint256, uint256) {\n        nodeRegistry.nodeRegistry(node, index);\n    }\n\n    function requestInvoice(bytes32[] memory proof, bytes32 root, bytes32 proofLeaf) public {\n\n    }\n\n    function pay() public {\n        //TODO\n    }\n\n    function cancel() public {\n        //TODO\n    }\n\n    function toLeaf(Invoice memory invoice) public pure returns(bytes32) {\n        return keccak256(abi.encodePacked(invoice.batchID, invoice.startBlock, invoice.endBlock, invoice.price));\n    }\n}",
  "sourcePath": "/home/rinke/Projects/postage_payments/contracts/RACE.sol",
  "compiler": {
    "name": "solc",
    "version": "0.6.3+commit.8dda9521.Emscripten.clang"
  },
  "schemaVersion": "3.0.20",
  "updatedAt": "2020-03-10T10:51:35.767Z",
  "devdoc": {
    "methods": {}
  },
  "userdoc": {
    "methods": {}
  }
}